:1000000012C024C023C022C021C020C01FC01EC0F7
:100010001DC01CC01BC01AC019C018C017C016C014
:1000200015C014C013C011241FBECFE5D4E0DEBF3D
:10003000CDBF10E0A0E6B0E0E0E5F1E002C0059041
:100040000D92A836B107D9F73AD080C0D9CF9C011C
:10005000ADECBCEC6FD09695879596958795969567
:100060008795009741F0EFE1FEE43197F1F700C08A
:1000700000000197C1F708950F931F93072F182FC2
:10008000292F332700BD69B988E18AB986E880BD88
:100090008CB15F99FDCF78941F910F9108955D9B6E
:1000A000FECF8CB90895FC019081992339F03196E7
:1000B0005D9BFECF9CB991919111FACF089510BC30
:1000C00083E389B988E18AB986E880BD8CB15F99FC
:1000D000FDCF78948FE087BB81E088BB82E390E01E
:1000E000EFE1FEE43197F1F700C000000197C1F79E
:1000F00018BAE1E6F0E083E55D9BFECF8CB9819113
:100100008111FACF20E33AE05D9BFECF2CB95D9BD5
:10011000FECF3CB9293364F42F5F82E390E0EFE136
:10012000FEE43197F1F700C000000197C1F7ECCF72
:1001300020E3F3CFA29FB001B39FC001A39F01D0E2
:10014000B29F700D811D1124911D0895F894FFCF69
:0801500053746172740A00008F
:00000001FF
