:1000000012C019C018C017C016C015C014C013C044
:1000100012C011C010C00FC00EC00DC00CC00BC06C
:100020000AC009C008C011241FBECFE5D4E0DEBF5E
:10003000CDBF17D059C0E4CF9C01ADECBCEC48D08B
:10004000969587959695879596958795009741F013
:10005000E3ECF9E03197F1F700C000000197C1F738
:1000600008958FE087BB51E042E034E028E058BBC0
:1000700084E690E0E3ECF9E03197F1F700C000008E
:100080000197C1F7C09848BB84E690E0E3ECF9E043
:100090003197F1F700C000000197C1F7C19838BB54
:1000A00084E690E0E3ECF9E03197F1F700C000005E
:1000B0000197C1F7C29828BB84E690E0E3ECF9E031
:1000C0003197F1F700C000000197C1F7C398CFCF77
:1000D000A29FB001B39FC001A39F01D0B29F700D3A
:0C00E000811D1124911D0895F894FFCF9C
:00000001FF
