:1000000012C019C018C017C016C015C014C013C044
:1000100012C011C010C00FC00EC00DC00CC00BC06C
:100020000AC009C008C011241FBECFE5D4E0DEBF5E
:10003000CDBFA7D1C5C1E4CF9C01ADECBCECB4D120
:10004000969587959695879596958795009741F013
:10005000E3ECF9E03197F1F700C000000197C1F738
:10006000089581E088BB8AE090E0E3ECF9E0319705
:10007000F1F700C000000197C1F7C09882E088BB8B
:100080008AE090E0E3ECF9E03197F1F700C000007E
:100090000197C1F7C19884E088BB8AE090E0E3EC67
:1000A000F9E03197F1F700C000000197C1F7C2985D
:1000B00088E088BB8AE090E0E3ECF9E03197F1F763
:1000C00000C000000197C1F7C398089588E088BB7D
:1000D0008AE090E0E3ECF9E03197F1F700C000002E
:1000E0000197C1F7C39884E088BB8AE090E0E3EC15
:1000F000F9E03197F1F700C000000197C1F7C2980D
:1001000082E088BB8AE090E0E3ECF9E03197F1F718
:1001100000C000000197C1F7C19881E088BB8AE068
:1001200090E0E3ECF9E03197F1F700C000000197AF
:10013000C1F7C098089520E028BB8AE090E0E3EC86
:10014000F9E03197F1F700C000000197C1F72F5F88
:10015000203191F7089524E030E055E04AE058BBA3
:100160008AE090E0E3ECF9E03197F1F700C000009D
:100170000197C1F748BB8AE090E0E3ECF9E03197E2
:10018000F1F700C000000197C1F72150310939F79C
:10019000089524E030E05AE045E058BB8AE090E062
:1001A000E3ECF9E03197F1F700C000000197C1F7E7
:1001B00048BB8AE090E0E3ECF9E03197F1F700C04A
:1001C00000000197C1F72150310939F7089524E063
:1001D00030E0F1E0E3E077E06EE05CE048E0F8BBBF
:1001E0008AE090E0A3ECB9E01197F1F700C00000BD
:1001F0000197C1F7E8BB8AE090E0A3ECB9E0119762
:10020000F1F700C000000197C1F778BB8AE090E0E9
:10021000A3ECB9E01197F1F700C000000197C1F716
:1002200068BB8AE090E0A3ECB9E01197F1F700C059
:1002300000000197C1F758BB8AE090E0A3ECB9E059
:100240001197F1F700C000000197C1F748BB8AE0A1
:1002500090E0A3ECB9E01197F1F700C0000001971E
:10026000C1F72150310909F0BACF089524E030E0F8
:10027000F8E0ECE07EE067E053E041E0F8BB8AE0C4
:1002800090E0A3ECB9E01197F1F700C000000197EE
:10029000C1F7E8BB8AE090E0A3ECB9E01197F1F771
:1002A00000C000000197C1F778BB8AE090E0A3ECA2
:1002B000B9E01197F1F700C000000197C1F768BBE2
:1002C0008AE090E0A3ECB9E01197F1F700C00000DC
:1002D0000197C1F758BB8AE090E0A3ECB9E0119711
:1002E000F1F700C000000197C1F748BB8AE090E039
:1002F000A3ECB9E01197F1F700C000000197C1F736
:100300002150310909F0BACF089524E030E059E0D6
:1003100046E058BB84E190E0E3ECF9E03197F1F777
:1003200000C000000197C1F748BB84E190E0E3EC16
:10033000F9E03197F1F700C000000197C1F72150B3
:10034000310939F7089524E030E056E049E058BB20
:1003500084E190E0E3ECF9E03197F1F700C00000B0
:100360000197C1F748BB84E190E0E3ECF9E03197F5
:10037000F1F700C000000197C1F72150310939F7AA
:1003800008958FE087BBA2DE04DF6BDEE4DE9EDE35
:100390009DDEBBDF66DE65DED6DF63DE62DE17DF95
:1003A00095DE94DE63DFEFCFA29FB001B39FC00163
:1003B000A39F01D0B29F700D811D1124911D08953E
:0403C000F894FFCFDF
:00000001FF
