:1000000012C037C058C01FC01EC01DC01CC01BC0BE
:100010001AC019C018C017C016C015C014C013C02C
:1000200012C011C010C011241FBECFE5D4E0DEBF46
:10003000CDBF20E0A0E6B0E001C01D92A136B2071E
:10004000E1F764D078C0DCCF9C01ADECBCEC67D0AC
:10005000969587959695879596958795009741F003
:10006000E3ECF9E03197F1F700C000000197C1F728
:1000700008951F920F920FB60F9211248F939F93A2
:10008000EF93FF938AE090E0E3ECF9E03197F1F72A
:1000900000C000000197C1F7809160008F5F8093DE
:1000A000600088BBFF91EF919F918F910F900FBEE1
:1000B0000F901F9018951F920F920FB60F92112458
:1000C0008F939F93EF93FF938AE090E0E3ECF9E046
:1000D0003197F1F700C000000197C1F780916000EF
:1000E0008F5F8093600088BBFF91EF919F918F910C
:1000F0000F900FBE0F901F9018958FE087BB85B7AC
:10010000886085BF80EC8BBF789408958FE087BBB3
:1001100085B7886085BF80EC8BBF7894FFCFA29FA6
:10012000B001B39FC001A39F01D0B29F700D811D8C
:0A0130001124911D0895F894FFCFEB
:00000001FF
