:1000000093C0A5C0A4C0A3C0A2C0A1C0A0C09FC0EF
:100010009EC09DC09CC09BC09AC099C0B8C097C0EC
:1000200096C095C094C06E616E00696E6600004017
:100030007A10F35A00A0724E18090010A5D4E800F7
:1000400000E87648170000E40B54020000CA9A3B0F
:10005000000000E1F5050000809698000000404295
:100060000F000000A0860100000010270000000023
:10007000E803000000006400000000000A00000027
:1000800000000100000000002C76D888DC674F08D3
:1000900023DFC1DFAE59E1B1B796E5E3E453C63AD9
:1000A000E651997696E8E6C28426EB898C9B62ED50
:1000B000407C6FFCEFBC9C9F40F2BAA56FA5F4900A
:1000C000055A2AF75C936B6CF9676DC11BFCE0E481
:1000D0000D47FEF520E6B500D0ED902E03009435D7
:1000E00077050080841E080000204E0A000000C82A
:1000F0000C333333330F986E12831141EF8D21147B
:10010000893BE65516CFFEE6DB18D1844B381BF74A
:100110007C1D901DA4BBE424203284725E228100E9
:10012000C9F124ECA1E53D2711241FBECFE5D4E0A1
:10013000DEBFCDBF10E0A0E6B0E0EEEFF1E102C01F
:1001400005900D92A037B107D9F7DCD456C858CF27
:100150008CE03CD18FE087BB85E487B98BEE86B914
:10016000789408959C01ADECBCECD6D49695879517
:100170009695879596958795009741F0E3ECF9E081
:100180003197F1F700C000000197C1F708951F9261
:100190000F920FB60F921124EF92FF920F931F93BD
:1001A0002F933F934F935F936F937F938F939F937F
:1001B000AF93BF93EF93FF93CF93DF93CDB7DEB7AA
:1001C0002C97DEBFCDBFC7D064B175B16F5F7F4FD5
:1001D00080E090E07DD520E030E040EA50E406D6B3
:1001E00020E030E040E85AE301D67C01FF928F9393
:1001F0007F936F9380E690E09F938F938E010F5FC4
:100200001F4F1F930F936B877C8779D7C801BED090
:1002100020E030E040EA50E46B857C858E2D9F2DF8
:10022000BED420E030E040E751E4E0D520D5F62E02
:1002300068BB61E080E07C877BD07C857F93FF9208
:1002400088E690E09F938F931F930F9358D7C80130
:100250009DD00FB6F894DEBF0FBECDBF89E190E010
:10026000E3ECF9E03197F1F700C000000197C1F726
:100270002C960FB6F894DEBF0FBECDBFDF91CF91A5
:10028000FF91EF91BF91AF919F918F917F916F916E
:100290005F914F913F912F911F910F91FF90EF90A0
:1002A0000F900FBE0F901F901895611118C0959870
:1002B000969894B39F6094BB95B3907F282F229516
:1002C0002F70292B25BB979A00C097988F70892B88
:1002D00085BB979A00C097989F6095BB0895959AA3
:1002E000E7CF9598969A84B3807F84BB979A00C095
:1002F00023B3979800C0979A00C093B32295207FAC
:10030000892F8F709798822B0895EBDF87FDFDCFA3
:1003100000C0E7CFCF93C82FF8DF60E08C2FCF91DC
:10032000C4CFCF93C82FF1DF61E08C2FCF91BDCF29
:10033000CF93C82F662331F0E8DF60E080EC8C0FAC
:10034000CF91B3CFE2DF60E080E88C0FCF91ADCFEB
:10035000DCDF90E00895D9DF60E081E0A6CFD5DF53
:1003600060E082E0A2CFCF93C82FCFDFCA3021F068
:1003700061E08C2FCF9199CF803430F0C0E8C5DF99
:1003800060E08C2FCF9191CFC0ECF9CFCF93DF936A
:10039000EC012196FC018081882321F0E4DF899122
:1003A0008111FCCFDF91CF910895CF93DF93EC01C2
:1003B0002196FC018491882331F0D5DFFE018491E0
:1003C00021968111FACFDF91CF910895CF93C82F55
:1003D00094B39F6094BB8D9A8E9A8F9AE0EAFFE067
:1003E0003197F1F7A99AA89A979A00C09798E0EEEA
:1003F000F4E03197F1F7979A00C0979820E130E048
:10040000F9013197F1F7979A00C09798F901319760
:10041000F1F7A898979A00C09798F9013197F1F7EA
:1004200074DF60E088E241DF70DF60E088E03DDF9C
:100430006CDF60E081E039DF68DF60E086E035DFB7
:1004400064DF60E08C2FCF9130CFA3E1B0E0EAE22F
:10045000F2E06EC36C014B012A01FC011782168287
:10046000838181FF29C3AE014F5F5F4F3A01F601DF
:100470009381F40193FD859193FF81914F0188232E
:1004800009F416C3853239F493FD859193FF819168
:100490004F01853231F4B60190E0F9D552012501C2
:1004A000E6CF10E0F12C20E02032A0F48B3269F08E
:1004B00030F4803259F0833269F420612CC08D32DF
:1004C00039F0803339F4216026C02260246023C0D3
:1004D000286021C027FD27C030ED380F3A3078F46E
:1004E00026FF06C0FAE01F9F300D1124132F13C002
:1004F0004AE0F49E300D1124F32E20620CC08E329F
:1005000021F426FDD5C2206406C08C3611F4206883
:1005100002C0883641F4F40193FD859193FF8191E7
:100520004F018111C1CF9BEB980F933018F42061DC
:10053000805E06C09BE9980F933008F064C12F7E5F
:1005400026FF16E02F73322E853619F42064322EE2
:1005500008C0863621F4F22FF0683F2E02C0111138
:10056000115037FE07C01C3350F4EE24E394E10E23
:1005700027E00BC0183038F027E017E005C027E06F
:100580004CE3E42E02C0212FE12C520144E0A40EE2
:10059000B11CF20160817181828193810E2DA301D2
:1005A00088D42C01098100FF02C003FF07C031FC81
:1005B00008C032FE09C030E2232E07C02DE2222EF1
:1005C00004C09BE2292E01C0212C802F8C7019F0D1
:1005D000211051C28DC237FE0FC0E40C04FF04C0CD
:1005E0008A81813309F4EA941E1474F5F8E0FE154B
:1005F00078F588E0E82E2CC036FC2AC0812F90E0E8
:10060000841595059CF02CEF42162FEF520674F0DE
:10061000432D4068342E0AC0E2E0F0E0EC0FFD1FED
:10062000E10FF11D8081803319F411501111F4CFC5
:1006300037FE0EC0EE24E394E10E812F90E04816C1
:1006400059062CF4141904C0EE24E39401C010E000
:1006500037FE06C01414150434F4C201019605C017
:1006600085E090E002C081E090E021100196112326
:1006700031F0212F30E02F5F3F4F820F931F2F2D3E
:1006800030E08217930714F4F81A01C0F12C832D7F
:10069000897041F4FF2031F0B60180E290E0F7D498
:1006A000FA94F8CF222021F0B601822D90E0EFD409
:1006B00033FC08C0FF2031F0B60180E390E0E7D4BE
:1006C000FA94F8CF37FE58C0942D852D57FE02C0FE
:1006D00090E080E0292E382E20E030E0A2014E1973
:1006E00051095D874C87A201421953095F874E87E4
:1006F000612F70E044275527461B570B598B488BB9
:100700005FEF2516350641F4B6018EE290E02A8BA4
:100710003B8BBDD43B892A89421453046CF04C8531
:100720005D854215530544F4EE85FF85E20FF31F06
:10073000E60DF71D818101C080E351E0251A3108E3
:100740002F5F3F4F488959892416350644F0B6017A
:1007500090E02A8B3B8B9BD42A893B89D1CF2414F0
:10076000350439F49A81963318F4953311F404FF63
:1007700081E3B60190E045C08A81813309F00F7EA4
:10078000B60190E084D4111105C034FC16C085E692
:1007900090E015C0B6018EE290E079D482E0EE24BC
:1007A000E394E80EF301E80FF11D8081B60190E0BB
:1007B0006ED411508E2D99F7E8CF85E490E0B60104
:1007C00066D457FC05C04114510439F404FF05C038
:1007D0005194419451088DE201C08BE2B60190E042
:1007E00056D480E39AE0491651042CF08F5F5AE00A
:1007F000451A5108F7CFB60190E049D4B601C201BD
:10080000C09645D44CC1833631F0833779F08335B7
:1008100009F054C020C05201E2E0AE0EB11CF2015A
:100820008081898301E010E0230113C05201F2E0CE
:10083000AF0EB11CF2014080518026FF03C0612F32
:1008400070E002C06FEF7FEFC2012A8B15D48C01DC
:100850002A892F7714C05201F2E0AF0EB11CF201C9
:100860004080518026FF03C0612F70E002C06FEF0F
:100870007FEFC2012A8BF5D38C012A892068322EA2
:1008800023FD18C08F2D90E00817190798F4B601C2
:1008900080E290E0FCD3FA94F5CFF20137FC859129
:1008A00037FE81912F01B60190E0F1D3F110FA9457
:1008B000015011090115110581F7F1C0843611F0BD
:1008C000893651F5520127FF09C0F4E0AF0EB11C83
:1008D000F20160817181828193810AC0F2E0AF0EE2
:1008E000B11CF20160817181072E000C880B990BFD
:1008F0002F76322E97FF09C090958095709561955F
:100900007F4F8F4F9F4F2068322E2AE030E0A301A7
:1009100016D4E82EE6183EC0022F853721F40F7E4C
:100920002AE030E01DC0097F8F3691F018F4883539
:1009300059F0BEC0803719F0883711F0B9C0006196
:1009400004FF09C0046007C024FF08C0066006C099
:1009500028E030E005C020E130E002C020E132E0D4
:10096000520107FF09C0F4E0AF0EB11CF201608133
:1009700071818281938108C0F2E0AF0EB11CF20157
:100980006081718180E090E0A301D9D3E82EE61860
:100990000F77302E36FE0BC0332D3E7FE11650F41C
:1009A00034FE0AC032FC08C0332D3E7E05C00E2D39
:1009B000332D03C00E2D01C0012F34FF0CC0FE01EA
:1009C000EE0DF11D8081803311F4397E08C032FFB5
:1009D00005C00E5F04C0832F867809F00F5F33FDDA
:1009E00012C030FF06C01E2D0F1518F41F0D101B6E
:1009F0000F2D0F1560F4B60180E290E03B8B47D3DA
:100A00000F5F3B89F6CF0F1510F4F01A01C0F12CDF
:100A100034FF11C0B60180E390E03B8B38D33B89B3
:100A200032FF16C031FD03C088E790E002C088E5C0
:100A300090E0B6010CC0832F867851F031FF02C0E0
:100A40008BE201C080E237FD8DE2B60190E01FD35A
:100A5000E11630F4B60180E390E019D31150F8CFDD
:100A6000EA94F301EE0DF11D8081B60190E00FD301
:100A7000E110F6CF14C0F4E0FF1548F584E0F81A51
:100A800033FE1DC0211024C003FF27C006E210E082
:100A9000F32DF0713F2EF8018491811121C0FF20C8
:100AA00009F4FDCCB60180E290E0F1D2FA94F7CFE0
:100AB000F6018681978123C08FEF9FEF20C0B6019A
:100AC00080E290E0E4D2FA94F110F9CFDBCFF12C80
:100AD000B601822D90E0DBD2D7CF0AE210E0D8CF6A
:100AE00031108052B60190E0D2D20F5F1F4FD3CFAA
:100AF00023E02F1510F483E0C2CFF12CC5CF63960D
:100B0000E2E132C08CE062DC8FE087BB85E487B92C
:100B10008BEE86B97894FFCFA29FB001B39FC0013E
:100B2000A39F01D0B29F700D811D1124911D0895C6
:100B30002F923F924F925F926F927F928F929F92ED
:100B4000AF92BF92CF92DF92EF92FF920F931F93DB
:100B5000CF93DF93CDB7DEB7CA1BDB0B0FB6F8948C
:100B6000DEBF0FBECDBF09942A88398848885F84CC
:100B70006E847D848C849B84AA84B984C884DF803D
:100B8000EE80FD800C811B81AA81B981CE0FD11D21
:100B90000FB6F894DEBF0FBECDBFED0108950CD0A7
:100BA000EBC0E3D040F0DAD030F021F45F3F19F031
:100BB000CCC0511115C1CFC0F0D098F39923C9F31F
:100BC0005523B1F3951B550BBB27AA276217730753
:100BD000840738F09F5F5F4F220F331F441FAA1F07
:100BE000A9F333D00E2E3AF0E0E830D091505040C7
:100BF000E695001CCAF729D0FE2F27D0660F771F75
:100C0000881FBB1F261737074807AB07B0E809F056
:100C1000BB0B802DBF01FF2793585F4F2AF09E3FEB
:100C2000510568F092C0DCC05F3FECF3983EDCF306
:100C3000869577956795B795F7959F5FC9F7880F64
:100C4000911D9695879597F90895E1E0660F771FB6
:100C5000881FBB1F621773078407BA0720F0621B47
:100C6000730B840BBA0BEE1F88F7E095089504D040
:100C70006894B111B5C0089598D088F09F5790F04E
:100C8000B92F9927B751A0F0D1F0660F771F881FB1
:100C9000991F1AF0BA95C9F712C0B13081F09FD0F0
:100CA000B1E008959CC0672F782F8827B85F39F08E
:100CB000B93FCCF3869577956795B395D9F73EF410
:100CC00090958095709561957F4F8F4F9F4F0895B8
:100CD000E89409C097FB3EF49095809570956195D6
:100CE0007F4F8F4F9F4F9923A9F0F92F96E9BB278C
:100CF0009395F695879577956795B795F111F8CF08
:100D0000FAF4BB0F11F460FF1BC06F5F7F4F8F4F72
:100D10009F4F16C0882311F096E911C0772321F068
:100D20009EE8872F762F05C0662371F096E8862F00
:100D300070E060E02AF09A95660F771F881FDAF757
:100D4000880F9695879597F9089597F99F6780E89A
:100D500070E060E008959FEF80EC089500240A940D
:100D60001616170618060906089500240A94121686
:100D70001306140605060895092E0394000C11F4B9
:100D8000882352F0BB0F40F4BF2B11F460FF04C066
:100D90006F5F7F4F8F4F9F4F089557FD9058440FBF
:100DA000551F59F05F3F71F04795880F97FB991FCA
:100DB00061F09F3F79F08795089512161306140687
:100DC000551FF2CF4695F1DF08C016161706180614
:100DD000991FF1CF86957105610508940895E894EF
:100DE000BB2766277727CB0197F908950BD0C4CF8F
:100DF000B5DF28F0BADF18F0952309F0A6CFABCF06
:100E00001124EECFCADFA0F3959FD1F3950F50E0E8
:100E1000551F629FF001729FBB27F00DB11D639FAC
:100E2000AA27F00DB11DAA1F649F6627B00DA11D52
:100E3000661F829F2227B00DA11D621F739FB00DF8
:100E4000A11D621F839FA00D611D221F749F332768
:100E5000A00D611D231F849F600D211D822F762F01
:100E60006A2F11249F5750408AF0E1F088234AF0FE
:100E7000EE0FFF1FBB1F661F771F881F915050404A
:100E8000A9F79E3F510570F060CFAACF5F3FECF30A
:100E9000983EDCF3869577956795B795F795E79536
:100EA0009F5FC1F7FE2B880F911D9695879597F947
:100EB0000895283008F027E03327DA01990F311D13
:100EC00087FD916000966105710539F432602E5FEF
:100ED0003D9330E32A95E1F708959F3F30F0803845
:100EE0007105610509F03C5F3C5F3D93913008F06E
:100EF0008068911DDF93CF931F930F93FF92EF9222
:100F0000192F987F9695E92F96959695E90FFF27CB
:100F1000E857FF4F99273327EE24FF24A701E70165
:100F200005900894079428F4360FE71EF81E491F11
:100F3000511D660F771F881F991F0694A1F7059012
:100F4000079428F4E70EF81E491F561FC11D770F9E
:100F5000881F991F661F0694A1F70590079428F42F
:100F6000F80E491F561FC71FD11D880F991F661FF6
:100F7000771F0694A1F70590079420F4490F561F98
:100F8000C71FD81F990F661F771F881F0694A9F7E0
:100F900084911095177041F0D695C7955795479550
:100FA000F794E7941A95C1F7EEE2F0E06894159093
:100FB000159135916591959105907FE27395E118B2
:100FC000F10A430B560BC90BD009C0F7E10CF11E17
:100FD000431F561FC91FD01D7EF4703311F48A952C
:100FE000E6CFE894015030F0080F0AF4002702170A
:100FF00008F4202F2395022F7A3328F079E37D938C
:101000002A95E9F710C07D932A9589F6069497955D
:101010006795379517951794E118F10A430B560B0E
:10102000C90BD00998F023957E9173957A3308F017
:1010300070E37C932013B8F77E9170617D9330F05C
:10104000839571E37D9370E32A95E1F71124EF9086
:10105000FF900F911F91CF91DF91992787FD909578
:101060000895FC010590615070400110D8F78095FB
:1010700090958E0F9F1F0895FC0161507040019064
:101080000110D8F7809590958E0F9F1F08950F93AC
:101090001F93CF93DF93FB01238121FD03C08FEFCB
:1010A0009FEF28C022FF16C04681578124813581D9
:1010B0004217530744F4A081B1819D012F5F3F4F38
:1010C000318320838C93268137812F5F3F4F378375
:1010D000268310C0EB01092F182F0084F185E02D25
:1010E0000995892BE1F68E819F8101969F838E83DE
:1010F000812F902FDF91CF911F910F910895AEE036
:10110000B0E0E4E8F8E022CD0D891E8986E08C830A
:101110001A8309838FEF9FE79E838D83AE01475E1D
:101120005F4F6F89788DCE0101968FD92F813885D9
:10113000F801E20FF31F10822E96E4E023CDFA01AE
:10114000AA27283051F1203181F1E8946F936E7F06
:101150006E5F7F4F8F4F9F4FAF4FB1E03ED0B4E0F7
:101160003CD0670F781F891F9A1FA11D680F791F38
:101170008A1F911DA11D6A0F711D811D911DA11D49
:1011800020D009F468943F912AE0269F1124301959
:10119000305D3193DEF6CF010895462F4770405DF4
:1011A0004193B3E00FD0C9F7F6CF462F4F70405DA3
:1011B0004A3318F0495D31FD4052419302D0A9F7FE
:1011C000EACFB4E0A6959795879577956795BA95F8
:1011D000C9F700976105710508959B01AC010A2EBE
:1011E00006945795479537952795BA95C9F7620F95
:0E11F000731F841F951FA01D0895F894FFCF54
:1011FE00563A20252E3366004C45443A202564008D
:00000001FF
