S00C00006D61696E2E7372656373
S113000093C0A5C0A4C0A3C0A2C0A1C0A0C09FC0EB
S11300109EC09DC09CC09BC09AC099C098C097C008
S113002096C095C094C06E616E00696E6600004013
S11300307A10F35A00A0724E18090010A5D4E800F3
S113004000E87648170000E40B54020000CA9A3B0B
S1130050000000E1F5050000809698000000404291
S11300600F000000A086010000001027000000001F
S1130070E803000000006400000000000A00000023
S113008000000100000000002C76D888DC674F08CF
S113009023DFC1DFAE59E1B1B796E5E3E453C63AD5
S11300A0E651997696E8E6C28426EB898C9B62ED4C
S11300B0407C6FFCEFBC9C9F40F2BAA56FA5F49006
S11300C0055A2AF75C936B6CF9676DC11BFCE0E47D
S11300D00D47FEF520E6B500D0ED902E03009435D3
S11300E077050080841E080000204E0A000000C826
S11300F00C333333330F986E12831141EF8D211477
S1130100893BE65516CFFEE6DB18D1844B381BF746
S11301107C1D901DA4BBE424203284725E228100E5
S1130120C9F124ECA1E53D2711241FBECFE5D4E09D
S1130130DEBFCDBF10E0A0E6B0E0EEE1FFE002C01C
S113014005900D92A836B107D9F7A7D4E6C658CFC3
S11301509C01ADECBCECFAD4969587959695879561
S113016096958795009741F0EFEFFBE63197F1F70D
S113017000C000000197C1F70895611118C0959857
S1130180969894B39F6094BB95B3907F282F229543
S11301902F70292B25BB979A00C097988F70892BB5
S11301A085BB979A00C097989F6095BB0895959AD0
S11301B0E7CF9598969A84B3807F84BB979A00C0C2
S11301C023B3979800C0979A00C093B32295207FD9
S11301D0892F8F709798822B0895EBDF87FDFDCFD1
S11301E085E090E00197F1F7E4CFCF93C82FF5DFD6
S11301F060E08C2FCF91C1CFCF93C82FEEDF61E0A9
S11302008C2FCF91BACFCF93C82F662331F0E5DF7F
S113021060E080EC8C0FCF91B0CFDFDF60E080E84E
S11302208C0FCF91AACFD9DF90E00895D6DF60E09C
S113023081E0A3CFD2DF60E082E09FCFCF93C82FCD
S1130240CCDFCA3021F061E08C2FCF9196CF80347F
S113025030F0C0E8C2DF60E08C2FCF918ECFC0ECCD
S1130260F9CFCF93DF93EC012196FC0180818823A1
S113027021F0E4DF89918111FCCFDF91CF910895C2
S1130280CF93DF93EC012196FC018491882331F014
S1130290D5DFFE01849121968111FACFDF91CF91B0
S11302A00895CF93C82F94B39F6094BB8D9A8E9A70
S11302B08F9AE0ECFCEA3197F1F7A99AA89A979AF9
S11302C000C09798E5EEF5E33197F1F7979A00C0EF
S11302D0979820EB30E0F9013197F1F7979A00C035
S11302E09798F9013197F1F7A898979A00C09798D1
S11302F0F9013197F1F771DF60E088E23EDF6DDFED
S113030060E088E03ADF69DF60E081E036DF65DFE6
S113031060E086E032DF61DF60E08C2FCF912DCF8B
S113032011B88FE280B9089594EA96BF06B607FE25
S1130330FDCF91B1987F983021F0903111F081E098
S1130340089583B984E886BF06B607FEFDCF81B160
S1130350887F883111F0803491F780E0089524EA91
S113036034E844E926BF06B607FEFDCF91B1987F75
S1130370983011F09031B1F783B936BF06B607FE55
S1130380FDCF91B1987F903219F0983509F0089516
S113039046BF06B604FCFDCFE5CFC6CF84E986BFD1
S11303A006B604FCFDCF089583B984E886BF06B67B
S11303B007FEFDCF91B1987F81E0983209F008954E
S11303C080E0089584EC86BF06B607FEFDCF83B1B6
S11303D0089584E886BF06B607FEFDCF83B108956D
S11303E0A3E1B0E0E5EFF1E0BDC36C014B012A01EC
S11303F0FC0117821682838181FF29C3AE014F5FFE
S11304005F4F3A01F6019381F40193FD859193FFC7
S113041081914F01882309F416C3853239F493FD81
S1130420859193FF81914F01853231F4B60190E0BB
S1130430BED452012501E6CF10E0F12C20E0203299
S1130440A0F48B3269F030F4803259F0833269F4CD
S113045020612CC08D3239F0803339F4216026C0FC
S11304602260246023C0286021C027FD27C030ED0E
S1130470380F3A3078F426FF06C0FAE01F9F300D9B
S11304801124132F13C04AE0F49E300D1124F32ECF
S113049020620CC08E3221F426FDD5C2206406C031
S11304A08C3611F4206802C0883641F4F40193FDBF
S11304B0859193FF81914F018111C1CF9BEB980FDF
S11304C0933018F42061805E06C09BE9980F933046
S11304D008F064C12F7E26FF16E02F73322E853676
S11304E019F42064322E08C0863621F4F22FF06805
S11304F03F2E02C01111115037FE07C01C3350F4B7
S1130500EE24E394E10E27E00BC0183038F027E026
S113051017E005C027E04CE3E42E02C0212FE12CB4
S1130520520144E0A40EB11CF20160817181828108
S113053093810E2DA3014DD32C01098100FF02C02C
S113054003FF07C031FC08C032FE09C030E2232E8D
S113055007C02DE2222E04C09BE2292E01C0212CCB
S1130560802F8C7019F0211051C28DC237FE0FC03C
S1130570E40C04FF04C08A81813309F4EA941E1454
S113058074F5F8E0FE1578F588E0E82E2CC036FC0A
S11305902AC0812F90E0841595059CF02CEF42161B
S11305A02FEF520674F0432D4068342E0AC0E2E067
S11305B0F0E0EC0FFD1FE10FF11D8081803319F491
S11305C011501111F4CF37FE0EC0EE24E394E10E66
S11305D0812F90E0481659062CF4141904C0EE2417
S11305E0E39401C010E037FE06C01414150434F47B
S11305F0C201019605C085E090E002C081E090E070
S113060021100196112331F0212F30E02F5F3F4F4D
S1130610820F931F2F2D30E08217930714F4F81ADA
S113062001C0F12C832D897041F4FF2031F0B60113
S113063080E290E0BCD3FA94F8CF222021F0B601F6
S1130640822D90E0B4D333FC08C0FF2031F0B60112
S113065080E390E0ACD3FA94F8CF37FE58C0942DE1
S1130660852D57FE02C090E080E0292E382E20E030
S113067030E0A2014E1951095D874C87A20142194D
S113068053095F874E87612F70E044275527461B27
S1130690570B598B488B5FEF2516350641F4B6018D
S11306A08EE290E02A8B3B8B82D33B892A894214C9
S11306B053046CF04C855D854215530544F4EE8576
S11306C0FF85E20FF31FE60DF71D818101C080E372
S11306D051E0251A31082F5F3F4F48895989241664
S11306E0350644F0B60190E02A8B3B8B60D32A890F
S11306F03B89D1CF2414350439F49A81963318F404
S1130700953311F404FF81E3B60190E045C08A817A
S1130710813309F00F7EB60190E049D3111105C071
S113072034FC16C085E690E015C0B6018EE290E078
S11307303ED382E0EE24E394E80EF301E80FF11DCA
S11307408081B60190E033D311508E2D99F7E8CF14
S113075085E490E0B6012BD357FC05C04114510445
S113076039F404FF05C05194419451088DE201C04D
S11307708BE2B60190E01BD380E39AE04916510462
S11307802CF08F5F5AE0451A5108F7CFB60190E07C
S11307900ED3B601C201C0960AD34CC1833631F0E0
S11307A0833779F0833509F054C020C05201E2E068
S11307B0AE0EB11CF2018081898301E010E02301B7
S11307C013C05201F2E0AF0EB11CF201408051801F
S11307D026FF03C0612F70E002C06FEF7FEFC201FC
S11307E02A8BDAD28C012A892F7714C05201F2E0C5
S11307F0AF0EB11CF2014080518026FF03C0612F6F
S113080070E002C06FEF7FEFC2012A8BBAD28C0175
S11308102A892068322E23FD18C08F2D90E00817F6
S1130820190798F4B60180E290E0C1D2FA94F5CFAA
S1130830F20137FC859137FE81912F01B60190E0DA
S1130840B6D2F110FA94015011090115110581F77E
S1130850F1C0843611F0893651F5520127FF09C0E1
S1130860F4E0AF0EB11CF201608171818281938149
S11308700AC0F2E0AF0EB11CF20160817181072E53
S1130880000C880B990B2F76322E97FF09C0909598
S11308908095709561957F4F8F4F9F4F2068322EC2
S11308A02AE030E0A301DBD2E82EE6183EC0022F96
S11308B0853721F40F7E2AE030E01DC0097F8F3692
S11308C091F018F4883559F0BEC0803719F0883794
S11308D011F0B9C0006104FF09C0046007C024FF1F
S11308E008C0066006C028E030E005C020E130E022
S11308F002C020E132E0520107FF09C0F4E0AF0E6C
S1130900B11CF201608171818281938108C0F2E09F
S1130910AF0EB11CF2016081718180E090E0A3010F
S11309209ED2E82EE6180F77302E36FE0BC0332DFC
S11309303E7FE11650F434FE0AC032FC08C0332D69
S11309403E7E05C00E2D332D03C00E2D01C0012F98
S113095034FF0CC0FE01EE0DF11D8081803311F4D3
S1130960397E08C032FF05C00E5F04C0832F86782D
S113097009F00F5F33FD12C030FF06C01E2D0F15A6
S113098018F41F0D101B0F2D0F1560F4B60180E233
S113099090E03B8B0CD20F5F3B89F6CF0F1510F420
S11309A0F01A01C0F12C34FF11C0B60180E390E0CD
S11309B03B8BFDD13B8932FF16C031FD03C088E774
S11309C090E002C088E590E0B6010CC0832F8678E1
S11309D051F031FF02C08BE201C080E237FD8DE2AD
S11309E0B60190E0E4D1E11630F4B60180E390E082
S11309F0DED11150F8CFEA94F301EE0DF11D8081A0
S1130A00B60190E0D4D1E110F6CF14C0F4E0FF15A4
S1130A1048F584E0F81A33FE1DC0211024C003FFFA
S1130A2027C006E210E0F32DF0713F2EF801849107
S1130A30811121C0FF2009F4FDCCB60180E290E0D1
S1130A40B6D1FA94F7CFF6018681978123C08FEF50
S1130A509FEF20C0B60180E290E0A9D1FA94F11092
S1130A60F9CFDBCFF12CB601822D90E0A0D1D7CF06
S1130A700AE210E0D8CF31108052B60190E097D14D
S1130A800F5F1F4FD3CF23E02F1510F483E0C2CFA5
S1130A90F12CC5CF6396E2E181C00F931F93CF93EE
S1130AA0DF93CDB7DEB7C158D1090FB6F894DEBFD6
S1130AB00FBECDBF8FE087BB33DC8CE0F2DBB6DB4F
S1130AC080E932DC8EEE70DC69DC80E948DC8AEA9D
S1130AD06BDC81E962DC76DC182F7BDCCF57DF4FDF
S1130AE08883C158D0405ADCCF57DF4F8881C15822
S1130AF0D040282F082E000C330B3F938F93812F67
S1130B00012E000C990B9F931F9380E690E09F9316
S1130B108F938E010F5F1F4F1F930F9380D1C801D6
S1130B20A0DB81E088BB0FB6F894DEBF0FBECDBF5B
S1130B3080E090E0CF57DF4F0FB6F894DEBF0FBED2
S1130B40CDBFDF91CF911F910F910895A29FB00166
S1130B50B39FC001A39F01D0B29F700D811D1124CA
S1130B60911D08952F923F924F925F926F927F92C0
S1130B708F929F92AF92BF92CF92DF92EF92FF92A9
S1130B800F931F93CF93DF93CDB7DEB7CA1BDB0B55
S1130B900FB6F894DEBF0FBECDBF09942A883988FA
S1130BA048885F846E847D848C849B84AA84B98401
S1130BB0C884DF80EE80FD800C811B81AA81B9810D
S1130BC0CE0FD11D0FB6F894DEBF0FBECDBFED0121
S1130BD00895283008F027E03327DA01990F311DF2
S1130BE087FD916000966105710539F432602E5FCE
S1130BF03D9330E32A95E1F708959F3F30F0803824
S1130C007105610509F03C5F3C5F3D93913008F04C
S1130C108068911DDF93CF931F930F93FF92EF9200
S1130C20192F987F9695E92F96959695E90FFF27AA
S1130C30E857FF4F99273327EE24FF24A701E70144
S1130C4005900894079428F4360FE71EF81E491FF0
S1130C50511D660F771F881F991F0694A1F70590F1
S1130C60079428F4E70EF81E491F561FC11D770F7D
S1130C70881F991F661F0694A1F70590079428F40E
S1130C80F80E491F561FC71FD11D880F991F661FD5
S1130C90771F0694A1F70590079420F4490F561F77
S1130CA0C71FD81F990F661F771F881F0694A9F7BF
S1130CB084911095177041F0D695C795579547952F
S1130CC0F794E7941A95C1F7EEE2F0E06894159072
S1130CD0159135916591959105907FE27395E11891
S1130CE0F10A430B560BC90BD009C0F7E10CF11EF6
S1130CF0431F561FC91FD01D7EF4703311F48A950B
S1130D00E6CFE894015030F0080F0AF400270217E8
S1130D1008F4202F2395022F7A3328F079E37D936A
S1130D202A95E9F710C07D932A9589F6069497953C
S1130D306795379517951794E118F10A430B560BED
S1130D40C90BD00998F023957E9173957A3308F0F6
S1130D5070E37C932013B8F77E9170617D9330F03B
S1130D60839571E37D9370E32A95E1F71124EF9065
S1130D70FF900F911F91CF91DF91992787FD909557
S1130D800895FC010590615070400110D8F78095DA
S1130D9090958E0F9F1F0895FC0161507040019043
S1130DA00110D8F7809590958E0F9F1F08950F938B
S1130DB01F93CF93DF93FB01238121FD03C08FEFAA
S1130DC09FEF28C022FF16C04681578124813581B8
S1130DD04217530744F4A081B1819D012F5F3F4F17
S1130DE0318320838C93268137812F5F3F4F378354
S1130DF0268310C0EB01092F182F0084F185E02D04
S1130E000995892BE1F68E819F8101969F838E83BC
S1130E10812F902FDF91CF911F910F910895AEE014
S1130E20B0E0E4E1F7E0ACCE0D891E8986E08C8366
S1130E301A8309838FEF9FE79E838D83AE01475EFC
S1130E405F4F6F89788DCE010196CADA2F8138857C
S1130E50F801E20FF31F10822E96E4E0ADCEFA0102
S1130E60AA27283051F1203181F1E8946F936E7FE5
S1130E706E5F7F4F8F4F9F4FAF4FB1E03ED0B4E0D6
S1130E803CD0670F781F891F9A1FA11D680F791F17
S1130E908A1F911DA11D6A0F711D811D911DA11D28
S1130EA020D009F468943F912AE0269F1124301938
S1130EB0305D3193DEF6CF010895462F4770405DD3
S1130EC04193B3E00FD0C9F7F6CF462F4F70405D82
S1130ED04A3318F0495D31FD4052419302D0A9F7DD
S1130EE0EACFB4E0A6959795879577956795BA95D7
S1130EF0C9F700976105710508959B01AC010A2E9D
S1130F0006945795479537952795BA95C9F7620F73
S1110F10731F841F951FA01D0895F894FFCF32
S10B0F1E25642E25640A00007D
S9030000FC
