:1000000012C019C018C017C016C015C014C013C044
:1000100012C011C010C00FC00EC00DC00CC00BC06C
:100020000AC009C008C011241FBECFE5D4E0DEBF5E
:10003000CDBF39D056C0E4CF9C01ADECBCEC45D06F
:10004000969587959695879596958795009741F013
:10005000E3ECF9E03197F1F700C000000197C1F738
:10006000089580B3482F4095842F8C70D9F02AE0F2
:1000700030E083EC99E00197F1F700C000002150D7
:100080003109B9F790B3892F90E0809590958C70E5
:100090009927842320B330E0209530952C703327A6
:1000A000232BC1F708958FE087BBC0E0DADF8430EF
:1000B00031F0883039F0C8BBD4DF8430D1F7CF5F5E
:1000C000C8BBFACFC0E0C8BBF7CFA29FB001B39FB7
:1000D000C001A39F01D0B29F700D811D1124911DFD
:0600E0000895F894FFCF23
:00000001FF
