:1000000012C021C020C01FC01EC01DC01CC01BC00C
:100010001BC019C018C017C016C015C014C013C02B
:1000200012C011C010C011241FBECFE5D4E0DEBF46
:10003000CDBF20E0A0E6B0E001C01D92A136B2071E
:10004000E1F72ED046C0DCCF1F920F920FB60F9271
:1000500011248F939F93809160008F5F8093600045
:1000600098B381E0892788BB87EF92EC9DBD8CBD5A
:100070009F918F910F900FBE0F901F9018958FE05A
:1000800087BB87EF92EC9DBD8CBD1FBC83E08EBD0E
:1000900084E089BF789485B78F7885BFF8940895F8
:1000A0008FE087BB87EF92EC9DBD8CBD1FBC83E0CA
:1000B0008EBD84E089BF789485B78F7885BFF8942A
:1000C00085B7806885BF7894889585B78F7785BF19
:0600D000F7CFF894FFCF0A
:00000001FF
