:1000000018C02AC029C028C027C026C025C024C0C7
:1000100023C022C021C020C01FC01EC01DC01CC0E4
:100020001BC01AC019C066756E20666F7265766552
:10003000720011241FBECFE5D4E0DEBFCDBF10E0BB
:10004000A0E6B0E0E0EDF2E002C005900D92A0372E
:10005000B107D9F7EFD03AC1D3CF90B380B389239A
:1000600082FDFBCF829BFECF08959C01ADECBCECE2
:1000700021D1969587959695879596958795009722
:1000800041F0E3ECF9E03197F1F700C0000001978F
:10009000C1F70895611118C09598969894B39F6020
:1000A00094BB95B3907F282F22952F70292B25BBC9
:1000B000979A00C097988F70892B85BB979A00C03C
:1000C00097989F6095BB0895959AE7CF9598969AD3
:1000D00084B3807F84BB979A00C023B3979800C0F5
:1000E000979A00C093B32295207F892F8F7097989D
:1000F000822B0895EBDF87FDFDCF00C0E7CFCF93C4
:10010000C82FF8DF60E08C2FCF91C4CFCF93C82FDA
:10011000F1DF61E08C2FCF91BDCFCF93C82F662345
:1001200031F0E8DF60E080EC8C0FCF91B3CFE2DFFD
:1001300060E080E88C0FCF91ADCFDCDF90E00895D8
:10014000D9DF60E081E0A6CFD5DF60E082E0A2CF1A
:10015000CF93C82FCFDFCA3021F061E08C2FCF9131
:1001600099CF803430F0C0E8C5DF60E08C2FCF91AC
:1001700091CFC0ECF9CFCF93DF93EC012196FC0136
:100180008081882321F0E4DF89918111FCCFDF9108
:10019000CF910895CF93DF93EC012196FC018491D8
:1001A000882331F0D5DFFE01849121968111FACFA9
:1001B000DF91CF910895CF93C82F94B39F6094BBE4
:1001C0008D9A8E9A8F9AE0EAFFE03197F1F7A99A1B
:1001D000A89A979A00C09798E0EEF4E03197F1F76B
:1001E000979A00C0979820E130E0F9013197F1F734
:1001F000979A00C09798F9013197F1F7A898979AC4
:1002000000C09798F9013197F1F774DF60E088E258
:1002100041DF70DF60E088E03DDF6CDF60E081E0BF
:1002200039DF68DF60E086E035DF64DF60E08C2F77
:10023000CF9130CF8A98929A8CE0BDDF81DF80E643
:1002400090E099DF89E690E096DF00E010E061E061
:100250008FE063DF8CE77CDF82E390E0E3ECF9E0A2
:100260003197F1F700C000000197C1F70F5F1F4FF2
:100270000B30110581F064DF80E690E07CDF89E6D9
:1002800090E079DFC0E0D0E083E262DF2196C01722
:10029000D107D4F3DCCF54DF86E290E07BDF84E645
:1002A00090E0E3ECF9E03197F1F700C0000001972E
:1002B000C1F7C4CFA29FB001B39FC001A39F01D0DB
:1002C000B29F700D811D1124911D0895F894FFCFE8
:1002D0004C6F6164696E670A005264793A7C000071
:00000001FF
